{
  "contractName": "med_chain",
  "abi": [
    {
      "inputs": [],
      "payable": false,
      "stateMutability": "nonpayable",
      "type": "constructor"
    },
    {
      "constant": false,
      "inputs": [
        {
          "name": "aadhaar",
          "type": "uint256"
        },
        {
          "name": "age",
          "type": "uint256"
        },
        {
          "name": "name",
          "type": "string"
        },
        {
          "name": "dob",
          "type": "string"
        },
        {
          "name": "weight",
          "type": "uint256"
        },
        {
          "name": "sex",
          "type": "string"
        },
        {
          "name": "allergies",
          "type": "string"
        }
      ],
      "name": "add_paitent",
      "outputs": [],
      "payable": false,
      "stateMutability": "nonpayable",
      "type": "function"
    },
    {
      "constant": false,
      "inputs": [
        {
          "name": "id",
          "type": "uint256"
        },
        {
          "name": "license_no",
          "type": "uint256"
        },
        {
          "name": "name",
          "type": "string"
        },
        {
          "name": "specialisation",
          "type": "string"
        },
        {
          "name": "d_addr",
          "type": "address"
        }
      ],
      "name": "add_doctor",
      "outputs": [],
      "payable": false,
      "stateMutability": "nonpayable",
      "type": "function"
    },
    {
      "constant": false,
      "inputs": [
        {
          "name": "id",
          "type": "uint256"
        },
        {
          "name": "license_no",
          "type": "uint256"
        },
        {
          "name": "p_addr",
          "type": "address"
        }
      ],
      "name": "add_pharmacy",
      "outputs": [],
      "payable": false,
      "stateMutability": "nonpayable",
      "type": "function"
    },
    {
      "constant": true,
      "inputs": [
        {
          "name": "aadhaar",
          "type": "uint256"
        }
      ],
      "name": "lookup_paitent",
      "outputs": [
        {
          "name": "",
          "type": "uint256"
        },
        {
          "name": "",
          "type": "uint256"
        },
        {
          "name": "",
          "type": "string"
        },
        {
          "name": "",
          "type": "string"
        },
        {
          "name": "",
          "type": "string"
        },
        {
          "name": "",
          "type": "uint256"
        },
        {
          "name": "",
          "type": "string"
        }
      ],
      "payable": false,
      "stateMutability": "view",
      "type": "function"
    },
    {
      "constant": true,
      "inputs": [
        {
          "name": "aadhaar",
          "type": "uint256"
        }
      ],
      "name": "doctor_last_prescription",
      "outputs": [
        {
          "name": "",
          "type": "string"
        },
        {
          "name": "",
          "type": "uint256"
        },
        {
          "name": "",
          "type": "string"
        }
      ],
      "payable": false,
      "stateMutability": "view",
      "type": "function"
    },
    {
      "constant": true,
      "inputs": [
        {
          "name": "aadhaar",
          "type": "uint256"
        }
      ],
      "name": "medical_history_details",
      "outputs": [
        {
          "name": "",
          "type": "string"
        },
        {
          "name": "",
          "type": "string"
        },
        {
          "name": "",
          "type": "string"
        }
      ],
      "payable": false,
      "stateMutability": "view",
      "type": "function"
    },
    {
      "constant": true,
      "inputs": [
        {
          "name": "aadhaar",
          "type": "uint256"
        }
      ],
      "name": "medical_history",
      "outputs": [
        {
          "name": "",
          "type": "string"
        },
        {
          "name": "",
          "type": "string"
        },
        {
          "name": "",
          "type": "string"
        }
      ],
      "payable": false,
      "stateMutability": "view",
      "type": "function"
    },
    {
      "constant": false,
      "inputs": [
        {
          "name": "d_id",
          "type": "uint256"
        },
        {
          "name": "p_aadhar",
          "type": "uint256"
        },
        {
          "name": "disease",
          "type": "string"
        },
        {
          "name": "symptoms",
          "type": "string"
        },
        {
          "name": "medicine",
          "type": "string"
        },
        {
          "name": "time",
          "type": "string"
        }
      ],
      "name": "add_prescription",
      "outputs": [],
      "payable": false,
      "stateMutability": "nonpayable",
      "type": "function"
    },
    {
      "constant": true,
      "inputs": [
        {
          "name": "aadhaar",
          "type": "uint256"
        }
      ],
      "name": "last_prescription",
      "outputs": [
        {
          "name": "",
          "type": "string"
        }
      ],
      "payable": false,
      "stateMutability": "view",
      "type": "function"
    },
    {
      "constant": false,
      "inputs": [
        {
          "name": "aadhaar",
          "type": "uint256"
        },
        {
          "name": "pharmacy_id",
          "type": "uint256"
        },
        {
          "name": "time",
          "type": "string"
        }
      ],
      "name": "mark_prescription",
      "outputs": [],
      "payable": false,
      "stateMutability": "nonpayable",
      "type": "function"
    }
  ],
  "bytecode": "0x6080604052600160065534801561001557600080fd5b50336000806101000a81548173ffffffffffffffffffffffffffffffffffffffff021916908373ffffffffffffffffffffffffffffffffffffffff16021790555061249e806100656000396000f3fe608060405234801561001057600080fd5b506004361061009e5760003560e01c80636573fa2e116100665780636573fa2e1461082f578063b7c9a49a146109ae578063c392ba6c14610bae578063e85acbf214610e42578063ea5b01a714610ee95761009e565b80630699a986146100a357806327d36a8b1461017257806345a656e41461041057806349181c221461052a5780634e99e574146106a9575b600080fd5b610170600480360360608110156100b957600080fd5b810190808035906020019092919080359060200190929190803590602001906401000000008111156100ea57600080fd5b8201836020820111156100fc57600080fd5b8035906020019184600183028401116401000000008311171561011e57600080fd5b91908080601f016020809104026020016040519081016040528093929190818152602001838380828437600081840152601f19601f820116905080830192505050505050509192919290505050610f41565b005b61040e600480360360e081101561018857600080fd5b810190808035906020019092919080359060200190929190803590602001906401000000008111156101b957600080fd5b8201836020820111156101cb57600080fd5b803590602001918460018302840111640100000000831117156101ed57600080fd5b91908080601f016020809104026020016040519081016040528093929190818152602001838380828437600081840152601f19601f8201169050808301925050505050505091929192908035906020019064010000000081111561025057600080fd5b82018360208201111561026257600080fd5b8035906020019184600183028401116401000000008311171561028457600080fd5b91908080601f016020809104026020016040519081016040528093929190818152602001838380828437600081840152601f19601f82011690508083019250505050505050919291929080359060200190929190803590602001906401000000008111156102f157600080fd5b82018360208201111561030357600080fd5b8035906020019184600183028401116401000000008311171561032557600080fd5b91908080601f016020809104026020016040519081016040528093929190818152602001838380828437600081840152601f19601f8201169050808301925050505050505091929192908035906020019064010000000081111561038857600080fd5b82018360208201111561039a57600080fd5b803590602001918460018302840111640100000000831117156103bc57600080fd5b91908080601f016020809104026020016040519081016040528093929190818152602001838380828437600081840152601f19601f820116905080830192505050505050509192919290505050611007565b005b61043c6004803603602081101561042657600080fd5b810190808035906020019092919050505061110d565b604051808060200184815260200180602001838103835286818151815260200191508051906020019080838360005b8381101561048657808201518184015260208101905061046b565b50505050905090810190601f1680156104b35780820380516001836020036101000a031916815260200191505b50838103825284818151815260200191508051906020019080838360005b838110156104ec5780820151818401526020810190506104d1565b50505050905090810190601f1680156105195780820380516001836020036101000a031916815260200191505b509550505050505060405180910390f35b6105566004803603602081101561054057600080fd5b810190808035906020019092919050505061136d565b60405180806020018060200180602001848103845287818151815260200191508051906020019080838360005b8381101561059e578082015181840152602081019050610583565b50505050905090810190601f1680156105cb5780820380516001836020036101000a031916815260200191505b50848103835286818151815260200191508051906020019080838360005b838110156106045780820151818401526020810190506105e9565b50505050905090810190601f1680156106315780820380516001836020036101000a031916815260200191505b50848103825285818151815260200191508051906020019080838360005b8381101561066a57808201518184015260208101905061064f565b50505050905090810190601f1680156106975780820380516001836020036101000a031916815260200191505b50965050505050505060405180910390f35b61082d600480360360a08110156106bf57600080fd5b810190808035906020019092919080359060200190929190803590602001906401000000008111156106f057600080fd5b82018360208201111561070257600080fd5b8035906020019184600183028401116401000000008311171561072457600080fd5b91908080601f016020809104026020016040519081016040528093929190818152602001838380828437600081840152601f19601f8201169050808301925050505050505091929192908035906020019064010000000081111561078757600080fd5b82018360208201111561079957600080fd5b803590602001918460018302840111640100000000831117156107bb57600080fd5b91908080601f016020809104026020016040519081016040528093929190818152602001838380828437600081840152601f19601f820116905080830192505050505050509192919290803573ffffffffffffffffffffffffffffffffffffffff169060200190929190505050611716565b005b61085b6004803603602081101561084557600080fd5b81019080803590602001909291905050506117fe565b60405180806020018060200180602001848103845287818151815260200191508051906020019080838360005b838110156108a3578082015181840152602081019050610888565b50505050905090810190601f1680156108d05780820380516001836020036101000a031916815260200191505b50848103835286818151815260200191508051906020019080838360005b838110156109095780820151818401526020810190506108ee565b50505050905090810190601f1680156109365780820380516001836020036101000a031916815260200191505b50848103825285818151815260200191508051906020019080838360005b8381101561096f578082015181840152602081019050610954565b50505050905090810190601f16801561099c5780820380516001836020036101000a031916815260200191505b50965050505050505060405180910390f35b6109da600480360360208110156109c457600080fd5b8101908080359060200190929190505050611a87565b604051808881526020018781526020018060200180602001806020018681526020018060200185810385528a818151815260200191508051906020019080838360005b83811015610a38578082015181840152602081019050610a1d565b50505050905090810190601f168015610a655780820380516001836020036101000a031916815260200191505b50858103845289818151815260200191508051906020019080838360005b83811015610a9e578082015181840152602081019050610a83565b50505050905090810190601f168015610acb5780820380516001836020036101000a031916815260200191505b50858103835288818151815260200191508051906020019080838360005b83811015610b04578082015181840152602081019050610ae9565b50505050905090810190601f168015610b315780820380516001836020036101000a031916815260200191505b50858103825286818151815260200191508051906020019080838360005b83811015610b6a578082015181840152602081019050610b4f565b50505050905090810190601f168015610b975780820380516001836020036101000a031916815260200191505b509b50505050505050505050505060405180910390f35b610e40600480360360c0811015610bc457600080fd5b81019080803590602001909291908035906020019092919080359060200190640100000000811115610bf557600080fd5b820183602082011115610c0757600080fd5b80359060200191846001830284011164010000000083111715610c2957600080fd5b91908080601f016020809104026020016040519081016040528093929190818152602001838380828437600081840152601f19601f82011690508083019250505050505050919291929080359060200190640100000000811115610c8c57600080fd5b820183602082011115610c9e57600080fd5b80359060200191846001830284011164010000000083111715610cc057600080fd5b91908080601f016020809104026020016040519081016040528093929190818152602001838380828437600081840152601f19601f82011690508083019250505050505050919291929080359060200190640100000000811115610d2357600080fd5b820183602082011115610d3557600080fd5b80359060200191846001830284011164010000000083111715610d5757600080fd5b91908080601f016020809104026020016040519081016040528093929190818152602001838380828437600081840152601f19601f82011690508083019250505050505050919291929080359060200190640100000000811115610dba57600080fd5b820183602082011115610dcc57600080fd5b80359060200191846001830284011164010000000083111715610dee57600080fd5b91908080601f016020809104026020016040519081016040528093929190818152602001838380828437600081840152601f19601f820116905080830192505050505050509192919290505050611db9565b005b610e6e60048036036020811015610e5857600080fd5b8101908080359060200190929190505050611f1c565b6040518080602001828103825283818151815260200191508051906020019080838360005b83811015610eae578082015181840152602081019050610e93565b50505050905090810190601f168015610edb5780820380516001836020036101000a031916815260200191505b509250505060405180910390f35b610f3f60048036036060811015610eff57600080fd5b810190808035906020019092919080359060200190929190803573ffffffffffffffffffffffffffffffffffffffff169060200190929190505050612020565b005b6000600160008581526020019081526020016000206007016001806000878152602001908152602001600020600701805490500381548110610f7f57fe5b9060005260206000200154905082600460008381526020019081526020016000206007018190555060016004600083815260200190815260200160002060090160006101000a81548160ff021916908315150217905550816004600083815260200190815260200160002060080190805190602001906110009291906123cd565b5050505050565b866001600089815260200190815260200160002060000181905550856001600089815260200190815260200160002060010181905550846001600089815260200190815260200160002060020190805190602001906110679291906123cd565b50836001600089815260200190815260200160002060030190805190602001906110929291906123cd565b50826001600089815260200190815260200160002060040181905550816001600089815260200190815260200160002060090190805190602001906110d89291906123cd565b50806001600089815260200190815260200160002060050190805190602001906111039291906123cd565b5050505050505050565b6060600060606004600060016000878152602001908152602001600020600701600180600089815260200190815260200160002060070180549050038154811061115357fe5b90600052602060002001548152602001908152602001600020600501600460006001600088815260200190815260200160002060070160018060008a81526020019081526020016000206007018054905003815481106111af57fe5b9060005260206000200154815260200190815260200160002060010154600460006001600089815260200190815260200160002060070160018060008b815260200190815260200160002060070180549050038154811061120c57fe5b90600052602060002001548152602001908152602001600020600401828054600181600116156101000203166002900480601f0160208091040260200160405190810160405280929190818152602001828054600181600116156101000203166002900480156112bd5780601f10611292576101008083540402835291602001916112bd565b820191906000526020600020905b8154815290600101906020018083116112a057829003601f168201915b50505050509250808054600181600116156101000203166002900480601f0160208091040260200160405190810160405280929190818152602001828054600181600116156101000203166002900480156113595780601f1061132e57610100808354040283529160200191611359565b820191906000526020600020905b81548152906001019060200180831161133c57829003601f168201915b505050505090509250925092509193909250565b6060806060806040518060400160405280600181526020017f2d00000000000000000000000000000000000000000000000000000000000000815250905060606040518060400160405280600181526020017f2d00000000000000000000000000000000000000000000000000000000000000815250905060606040518060400160405280600181526020017f2d00000000000000000000000000000000000000000000000000000000000000815250905060008090505b6001600089815260200190815260200160002060070180549050811015611702576115298460046000600160008d8152602001908152602001600020600701858154811061146f57fe5b906000526020600020015481526020019081526020016000206003018054600181600116156101000203166002900480601f01602080910402602001604051908101604052809291908181526020018280546001816001161561010002031660029004801561151f5780601f106114f45761010080835404028352916020019161151f565b820191906000526020600020905b81548152906001019060200180831161150257829003601f168201915b50505050506120b0565b935061160e8360046000600160008d8152602001908152602001600020600701858154811061155457fe5b906000526020600020015481526020019081526020016000206005018054600181600116156101000203166002900480601f0160208091040260200160405190810160405280929190818152602001828054600181600116156101000203166002900480156116045780601f106115d957610100808354040283529160200191611604565b820191906000526020600020905b8154815290600101906020018083116115e757829003601f168201915b50505050506120b0565b92506116f38260046000600160008d8152602001908152602001600020600701858154811061163957fe5b906000526020600020015481526020019081526020016000206006018054600181600116156101000203166002900480601f0160208091040260200160405190810160405280929190818152602001828054600181600116156101000203166002900480156116e95780601f106116be576101008083540402835291602001916116e9565b820191906000526020600020905b8154815290600101906020018083116116cc57829003601f168201915b50505050506120b0565b91508080600101915050611425565b508282829550955095505050509193909250565b846002600087815260200190815260200160002060000181905550836002600087815260200190815260200160002060010181905550826002600087815260200190815260200160002060020190805190602001906117769291906123cd565b50816002600087815260200190815260200160002060030190805190602001906117a19291906123cd565b50806002600087815260200190815260200160002060040160006101000a81548173ffffffffffffffffffffffffffffffffffffffff021916908373ffffffffffffffffffffffffffffffffffffffff1602179055505050505050565b6060806060806040518060400160405280600181526020017f2d00000000000000000000000000000000000000000000000000000000000000815250905060606040518060400160405280600181526020017f2d00000000000000000000000000000000000000000000000000000000000000815250905060606040518060400160405280600181526020017f2d00000000000000000000000000000000000000000000000000000000000000815250905060008090505b6001600089815260200190815260200160002060070180549050811015611a735761192a8461192560046000600160008e8152602001908152602001600020600701868154811061190357fe5b90600052602060002001548152602001908152602001600020600001546122a0565b6120b0565b935061197f8361197a60046000600160008e8152602001908152602001600020600701868154811061195857fe5b90600052602060002001548152602001908152602001600020600101546122a0565b6120b0565b9250611a648260046000600160008d815260200190815260200160002060070185815481106119aa57fe5b906000526020600020015481526020019081526020016000206004018054600181600116156101000203166002900480601f016020809104026020016040519081016040528092919081815260200182805460018160011615610100020316600290048015611a5a5780601f10611a2f57610100808354040283529160200191611a5a565b820191906000526020600020905b815481529060010190602001808311611a3d57829003601f168201915b50505050506120b0565b915080806001019150506118b6565b508282829550955095505050509193909250565b6000806060806060600060606001600089815260200190815260200160002060000154600160008a815260200190815260200160002060010154600160008b8152602001908152602001600020600201600160008c8152602001908152602001600020600901600160008d8152602001908152602001600020600301600160008e815260200190815260200160002060040154600160008f8152602001908152602001600020600501848054600181600116156101000203166002900480601f016020809104026020016040519081016040528092919081815260200182805460018160011615610100020316600290048015611bc55780601f10611b9a57610100808354040283529160200191611bc5565b820191906000526020600020905b815481529060010190602001808311611ba857829003601f168201915b50505050509450838054600181600116156101000203166002900480601f016020809104026020016040519081016040528092919081815260200182805460018160011615610100020316600290048015611c615780601f10611c3657610100808354040283529160200191611c61565b820191906000526020600020905b815481529060010190602001808311611c4457829003601f168201915b50505050509350828054600181600116156101000203166002900480601f016020809104026020016040519081016040528092919081815260200182805460018160011615610100020316600290048015611cfd5780601f10611cd257610100808354040283529160200191611cfd565b820191906000526020600020905b815481529060010190602001808311611ce057829003601f168201915b50505050509250808054600181600116156101000203166002900480601f016020809104026020016040519081016040528092919081815260200182805460018160011615610100020316600290048015611d995780601f10611d6e57610100808354040283529160200191611d99565b820191906000526020600020905b815481529060010190602001808311611d7c57829003601f168201915b505050505090509650965096509650965096509650919395979092949650565b6001600086815260200190815260200160002060070160065490806001815401808255809150509060018203906000526020600020016000909192909190915055506006546004600060065481526020019081526020016000206000018190555085600460006006548152602001908152602001600020600101819055508460046000600654815260200190815260200160002060020181905550836004600060065481526020019081526020016000206003019080519060200190611e809291906123cd565b50826004600060065481526020019081526020016000206004019080519060200190611ead9291906123cd565b50816004600060065481526020019081526020016000206005019080519060200190611eda9291906123cd565b50806004600060065481526020019081526020016000206006019080519060200190611f079291906123cd565b50600160065401600681905550505050505050565b60606000600160008481526020019081526020016000206007016001806000868152602001908152602001600020600701805490500381548110611f5c57fe5b90600052602060002001549050600460008281526020019081526020016000206005018054600181600116156101000203166002900480601f0160208091040260200160405190810160405280929190818152602001828054600181600116156101000203166002900480156120135780601f10611fe857610100808354040283529160200191612013565b820191906000526020600020905b815481529060010190602001808311611ff657829003601f168201915b5050505050915050919050565b826003600085815260200190815260200160002060000181905550816003600085815260200190815260200160002060010181905550806003600085815260200190815260200160002060020160006101000a81548173ffffffffffffffffffffffffffffffffffffffff021916908373ffffffffffffffffffffffffffffffffffffffff160217905550505050565b6060806040518060400160405280600181526020017f2d000000000000000000000000000000000000000000000000000000000000008152509050606083518251865101016040519080825280601f01601f1916602001820160405280156121275781602001600182028038833980820191505090505b5090506060819050600080905060008090505b87518110156121a85787818151811061214f57fe5b602001015160f81c60f81b83838060010194508151811061216c57fe5b60200101907effffffffffffffffffffffffffffffffffffffffffffffffffffffffffffff1916908160001a905350808060010191505061213a565b5060008090505b845181101561221d578481815181106121c457fe5b602001015160f81c60f81b8383806001019450815181106121e157fe5b60200101907effffffffffffffffffffffffffffffffffffffffffffffffffffffffffffff1916908160001a90535080806001019150506121af565b5060008090505b86518110156122925786818151811061223957fe5b602001015160f81c60f81b83838060010194508151811061225657fe5b60200101907effffffffffffffffffffffffffffffffffffffffffffffffffffffffffffff1916908160001a9053508080600101915050612224565b508194505050505092915050565b606060008214156122e8576040518060400160405280600181526020017f300000000000000000000000000000000000000000000000000000000000000081525090506123c8565b600082905060005b60008214612312578080600101915050600a828161230a57fe5b0491506122f0565b6060816040519080825280601f01601f1916602001820160405280156123475781602001600182028038833980820191505090505b50905060006001830390505b600086146123c057600a868161236557fe5b0660300160f81b8282806001900393508151811061237f57fe5b60200101907effffffffffffffffffffffffffffffffffffffffffffffffffffffffffffff1916908160001a905350600a86816123b857fe5b049550612353565b819450505050505b919050565b828054600181600116156101000203166002900490600052602060002090601f016020900481019282601f1061240e57805160ff191683800117855561243c565b8280016001018555821561243c579182015b8281111561243b578251825591602001919060010190612420565b5b509050612449919061244d565b5090565b61246f91905b8082111561246b576000816000905550600101612453565b5090565b9056fea165627a7a72305820ecca415581b9a60df3da1a4a4ac2aa5d3062715828089f43ac4d618533eee0110029",
  "source": "pragma solidity ^0.5.8;\n\ncontract med_chain {\n    address private oracle;\n\n    constructor() public {\n        oracle = msg.sender;\n    }\n\n    struct admin {\n        uint id;\n        address admin_address;\n    }\n\n    struct paitent {\n        uint aadhaar;\n        uint age;\n        string name;\n        string dob;\n        uint weight;\n        string allergies;\n        string disease_history;\n        uint[] prescription_ids;\n        uint[] doctor_ids;\n        string sex;\n    }\n\n    struct doctor {\n        uint id;\n        uint license_no;\n        string name;\n        string specialisation;\n        address doctor_address;\n    }\n\n    struct pharmacy {\n        uint id;\n        uint license_no;\n        address phar_addr;\n    }\n\n    struct prescription {\n        uint id;\n        uint doctor_id;\n        uint paitent_aadhaar;\n        string disease;\n        string symptoms;\n        string medicine;\n        string timestamp_prescribed;\n        uint pharmacy_id;\n        string timestamp_marked;\n        bool marked;\n    }\n\n    mapping (uint => paitent) paitent_aadhaar_mapping;\n    mapping (uint => doctor) doctor_id_mapping;\n    mapping (uint => pharmacy) pharmacy_id_mapping;\n    mapping (uint => prescription) prescription_id_mapping;\n    mapping (uint => admin) admin_id_mapping;\n    uint current_pres_id = 1;\n\n    modifier only_doctor(uint d_id) {\n        if(doctor_id_mapping[d_id].doctor_address == msg.sender){\n            _;\n        }\n        else {\n            revert();\n        }\n    }\n\n    modifier only_pharmacy(uint f_id) {\n        if(pharmacy_id_mapping[f_id].phar_addr == msg.sender){\n            _;\n        }\n        else {\n            revert();\n        }\n    }\n\n    modifier only_admin(uint a_id) {\n        if (admin_id_mapping[a_id].admin_address == msg.sender) {\n            _;\n        }\n        else {\n            revert();\n        }\n    }\n\n    function strConcat(string memory _a,  string memory _c) internal pure returns (string memory _concatenatedString) {\n        string memory _b = \"-\";\n        string memory abcde = new string(bytes(_a).length + bytes(_b).length + bytes(_c).length );\n        bytes memory babcde = bytes(abcde);\n        uint k = 0;\n        for (uint i = 0; i < bytes(_a).length; i++) {\n            babcde[k++] = bytes(_a)[i];\n        }\n        for (uint i = 0; i < bytes(_b).length; i++) {\n            babcde[k++] = bytes(_b)[i];\n        }\n        for (uint i = 0; i < bytes(_c).length; i++) {\n            babcde[k++] = bytes(_c)[i];\n        }\n        return string(babcde);\n    }\n\n    function add_paitent(uint aadhaar, uint age, string memory name, string memory dob, uint weight, string memory sex, string memory allergies) public {\n        paitent_aadhaar_mapping[aadhaar].aadhaar = aadhaar;\n        paitent_aadhaar_mapping[aadhaar].age = age;\n        paitent_aadhaar_mapping[aadhaar].name = name;\n        paitent_aadhaar_mapping[aadhaar].dob = dob;\n        paitent_aadhaar_mapping[aadhaar].weight = weight;\n        paitent_aadhaar_mapping[aadhaar].sex = sex;\n        paitent_aadhaar_mapping[aadhaar].allergies = allergies;\n    }\n\n    function add_doctor(uint id, uint license_no, string memory name, string memory specialisation, address d_addr) public {\n        doctor_id_mapping[id].id = id;\n        doctor_id_mapping[id].license_no = license_no;\n        doctor_id_mapping[id].name = name;\n        doctor_id_mapping[id].specialisation = specialisation;\n        doctor_id_mapping[id].doctor_address = d_addr;\n    }\n\n    function add_pharmacy(uint id, uint license_no, address p_addr) public {\n        pharmacy_id_mapping[id].id = id;\n        pharmacy_id_mapping[id].license_no = license_no;\n        pharmacy_id_mapping[id].phar_addr = p_addr;\n    }\n\n    function lookup_paitent(uint aadhaar) view public returns (uint, uint, string memory, string memory, string memory, uint, string memory) {         \n        return (\n            paitent_aadhaar_mapping[aadhaar].aadhaar,\n            paitent_aadhaar_mapping[aadhaar].age,\n            paitent_aadhaar_mapping[aadhaar].name,\n            paitent_aadhaar_mapping[aadhaar].sex,\n            paitent_aadhaar_mapping[aadhaar].dob,\n            paitent_aadhaar_mapping[aadhaar].weight,\n            paitent_aadhaar_mapping[aadhaar].allergies\n        );\n    }\n    \n    function doctor_last_prescription(uint aadhaar) view public returns (string memory, uint, string memory){\n        return (\n            prescription_id_mapping[paitent_aadhaar_mapping[aadhaar].prescription_ids[paitent_aadhaar_mapping[aadhaar].prescription_ids.length - 1]].medicine,\n            prescription_id_mapping[paitent_aadhaar_mapping[aadhaar].prescription_ids[paitent_aadhaar_mapping[aadhaar].prescription_ids.length - 1]].doctor_id,\n            prescription_id_mapping[paitent_aadhaar_mapping[aadhaar].prescription_ids[paitent_aadhaar_mapping[aadhaar].prescription_ids.length - 1]].symptoms\n        );\n    }\n    \n    function uint2str(uint _i) internal pure returns (string memory _uintAsString) {\n        if (_i == 0) {\n            return \"0\";\n        }\n        uint j = _i;\n        uint len;\n        while (j != 0) {\n            len++;\n            j /= 10;\n        }\n        bytes memory bstr = new bytes(len);\n        uint k = len - 1;\n        while (_i != 0) {\n            bstr[k--] = byte(uint8(48 + _i % 10));\n            _i /= 10;\n        }\n        return string(bstr);\n    }\n    \n    function medical_history_details(uint aadhaar) view public returns ( string memory, string memory, string memory) {\n        string memory ids = \"-\";\n        string memory d_ids = \"-\";\n        string memory symptoms = \"-\";\n\n        for(uint i = 0; i < paitent_aadhaar_mapping[aadhaar].prescription_ids.length; i++ ){\n            ids = strConcat(ids, uint2str(prescription_id_mapping[paitent_aadhaar_mapping[aadhaar].prescription_ids[i]].id));\n            d_ids = strConcat(d_ids, uint2str(prescription_id_mapping[paitent_aadhaar_mapping[aadhaar].prescription_ids[i]].doctor_id));\n            symptoms = strConcat(symptoms, prescription_id_mapping[paitent_aadhaar_mapping[aadhaar].prescription_ids[i]].symptoms);\n\n        }\n\n        return(ids, d_ids, symptoms);\n    }\n\n    function medical_history(uint aadhaar) view public returns ( string memory, string memory, string memory) {\n        string memory dis = \"-\";\n        string memory med = \"-\";\n        string memory time = \"-\";\n        for(uint i = 0; i < paitent_aadhaar_mapping[aadhaar].prescription_ids.length; i++ ){\n            dis = strConcat(dis, prescription_id_mapping[paitent_aadhaar_mapping[aadhaar].prescription_ids[i]].disease);\n            med = strConcat(med, prescription_id_mapping[paitent_aadhaar_mapping[aadhaar].prescription_ids[i]].medicine);\n            time = strConcat(time, prescription_id_mapping[paitent_aadhaar_mapping[aadhaar].prescription_ids[i]].timestamp_prescribed);\n        }\n\n        return(dis, med, time);\n    }\n\n    function add_prescription(uint d_id, uint p_aadhar, string memory disease, string memory symptoms, string memory medicine, string memory time) public {\n        paitent_aadhaar_mapping[p_aadhar].prescription_ids.push(current_pres_id);\n        prescription_id_mapping[current_pres_id].id = current_pres_id;\n        prescription_id_mapping[current_pres_id].doctor_id = d_id;\n        prescription_id_mapping[current_pres_id].paitent_aadhaar = p_aadhar;\n        prescription_id_mapping[current_pres_id].disease = disease;\n        prescription_id_mapping[current_pres_id].symptoms = symptoms;\n        prescription_id_mapping[current_pres_id].medicine = medicine;\n        prescription_id_mapping[current_pres_id].timestamp_prescribed = time;\n        current_pres_id = current_pres_id + 1;\n    }\n\n    function last_prescription(uint aadhaar) view public returns (string memory) {\n        uint last_presc_id = paitent_aadhaar_mapping[aadhaar].prescription_ids[paitent_aadhaar_mapping[aadhaar].prescription_ids.length -1];\n        return ( prescription_id_mapping[last_presc_id].medicine);\n                \n    }\n\n    function mark_prescription(uint aadhaar, uint pharmacy_id, string memory time) public {\n        uint last_presc_id = paitent_aadhaar_mapping[aadhaar].prescription_ids[paitent_aadhaar_mapping[aadhaar].prescription_ids.length -1];\n        prescription_id_mapping[last_presc_id].pharmacy_id = pharmacy_id;\n        prescription_id_mapping[last_presc_id].marked = true;\n        prescription_id_mapping[last_presc_id].timestamp_marked = time;\n    }\n\n}",
  "sourcePath": "/home/n3m0/Documents/blockchainWorking/contracts/med_chain.sol",
  "compiler": {
    "name": "solc",
    "version": "0.5.8+commit.23d335f2.Emscripten.clang"
  },
  "schemaVersion": "3.0.16",
  "updatedAt": "2019-10-31T04:41:25.777Z",
  "devdoc": {
    "methods": {}
  },
  "userdoc": {
    "methods": {}
  }
}