{
  "contractName": "med_chain",
  "abi": [
    {
      "inputs": [],
      "payable": false,
      "stateMutability": "nonpayable",
      "type": "constructor"
    },
    {
      "constant": false,
      "inputs": [
        {
          "name": "aadhaar",
          "type": "uint256"
        },
        {
          "name": "age",
          "type": "uint256"
        },
        {
          "name": "name",
          "type": "bytes32"
        },
        {
          "name": "dob",
          "type": "bytes32"
        },
        {
          "name": "weight",
          "type": "uint256"
        }
      ],
      "name": "add_paitent",
      "outputs": [],
      "payable": false,
      "stateMutability": "nonpayable",
      "type": "function"
    },
    {
      "constant": false,
      "inputs": [
        {
          "name": "id",
          "type": "uint256"
        },
        {
          "name": "license_no",
          "type": "uint256"
        },
        {
          "name": "name",
          "type": "bytes32"
        },
        {
          "name": "specialisation",
          "type": "bytes32"
        },
        {
          "name": "d_addr",
          "type": "address"
        }
      ],
      "name": "add_doctor",
      "outputs": [],
      "payable": false,
      "stateMutability": "nonpayable",
      "type": "function"
    },
    {
      "constant": false,
      "inputs": [
        {
          "name": "id",
          "type": "uint256"
        },
        {
          "name": "license_no",
          "type": "uint256"
        },
        {
          "name": "p_addr",
          "type": "address"
        }
      ],
      "name": "add_pharmacy",
      "outputs": [],
      "payable": false,
      "stateMutability": "nonpayable",
      "type": "function"
    },
    {
      "constant": true,
      "inputs": [
        {
          "name": "aadhaar",
          "type": "uint256"
        }
      ],
      "name": "lookup_paitent",
      "outputs": [
        {
          "name": "",
          "type": "uint256"
        },
        {
          "name": "",
          "type": "uint256"
        },
        {
          "name": "",
          "type": "bytes32"
        },
        {
          "name": "",
          "type": "bytes32"
        },
        {
          "name": "",
          "type": "uint256"
        },
        {
          "name": "",
          "type": "bytes32[]"
        }
      ],
      "payable": false,
      "stateMutability": "view",
      "type": "function"
    },
    {
      "constant": true,
      "inputs": [
        {
          "name": "aadhaar",
          "type": "uint256"
        }
      ],
      "name": "doctor_last_prescription",
      "outputs": [
        {
          "name": "",
          "type": "bytes32"
        },
        {
          "name": "",
          "type": "uint256"
        },
        {
          "name": "",
          "type": "bytes32"
        }
      ],
      "payable": false,
      "stateMutability": "view",
      "type": "function"
    },
    {
      "constant": true,
      "inputs": [
        {
          "name": "aadhaar",
          "type": "uint256"
        }
      ],
      "name": "medical_history",
      "outputs": [
        {
          "name": "",
          "type": "uint256[]"
        },
        {
          "name": "",
          "type": "bytes32[]"
        },
        {
          "name": "",
          "type": "bytes32[]"
        },
        {
          "name": "",
          "type": "bytes32[]"
        },
        {
          "name": "",
          "type": "bytes32[]"
        }
      ],
      "payable": false,
      "stateMutability": "view",
      "type": "function"
    },
    {
      "constant": false,
      "inputs": [],
      "name": "add_prescription",
      "outputs": [],
      "payable": false,
      "stateMutability": "nonpayable",
      "type": "function"
    },
    {
      "constant": true,
      "inputs": [
        {
          "name": "aadhaar",
          "type": "uint256"
        }
      ],
      "name": "last_prescription",
      "outputs": [
        {
          "name": "",
          "type": "bytes32"
        }
      ],
      "payable": false,
      "stateMutability": "view",
      "type": "function"
    },
    {
      "constant": false,
      "inputs": [
        {
          "name": "aadhaar",
          "type": "uint256"
        },
        {
          "name": "pharmacy_id",
          "type": "uint256"
        },
        {
          "name": "time",
          "type": "bytes32"
        }
      ],
      "name": "mark_prescription",
      "outputs": [],
      "payable": false,
      "stateMutability": "nonpayable",
      "type": "function"
    }
  ],
  "bytecode": "0x608060405234801561001057600080fd5b50336000806101000a81548173ffffffffffffffffffffffffffffffffffffffff021916908373ffffffffffffffffffffffffffffffffffffffff160217905550610c17806100606000396000f3fe608060405234801561001057600080fd5b50600436106100935760003560e01c80639d9e9b37116100665780639d9e9b3714610301578063afa14fe414610343578063b7c9a49a14610399578063e85acbf21461043f578063ea5b01a71461048157610093565b80633f5ce6eb1461009857806345a656e41461010457806349181c22146101545780635dc051d9146102f7575b600080fd5b610102600480360360a08110156100ae57600080fd5b8101908080359060200190929190803590602001909291908035906020019092919080359060200190929190803573ffffffffffffffffffffffffffffffffffffffff1690602001909291905050506104d9565b005b6101306004803603602081101561011a57600080fd5b81019080803590602001909291905050506105a1565b60405180848152602001838152602001828152602001935050505060405180910390f35b6101806004803603602081101561016a57600080fd5b81019080803590602001909291905050506106ca565b60405180806020018060200180602001806020018060200186810386528b818151815260200191508051906020019060200280838360005b838110156101d35780820151818401526020810190506101b8565b5050505090500186810385528a818151815260200191508051906020019060200280838360005b838110156102155780820151818401526020810190506101fa565b50505050905001868103845289818151815260200191508051906020019060200280838360005b8381101561025757808201518184015260208101905061023c565b50505050905001868103835288818151815260200191508051906020019060200280838360005b8381101561029957808201518184015260208101905061027e565b50505050905001868103825287818151815260200191508051906020019060200280838360005b838110156102db5780820151818401526020810190506102c0565b505050509050019a505050505050505050505060405180910390f35b6102ff610847565b005b6103416004803603606081101561031757600080fd5b81019080803590602001909291908035906020019092919080359060200190929190505050610849565b005b610397600480360360a081101561035957600080fd5b8101908080359060200190929190803590602001909291908035906020019092919080359060200190929190803590602001909291905050506108ff565b005b6103c5600480360360208110156103af57600080fd5b81019080803590602001909291905050506109e2565b6040518087815260200186815260200185815260200184815260200183815260200180602001828103825283818151815260200191508051906020019060200280838360005b8381101561042657808201518184015260208101905061040b565b5050505090500197505050505050505060405180910390f35b61046b6004803603602081101561045557600080fd5b8101908080359060200190929190505050610af0565b6040518082815260200191505060405180910390f35b6104d76004803603606081101561049757600080fd5b810190808035906020019092919080359060200190929190803573ffffffffffffffffffffffffffffffffffffffff169060200190929190505050610b5b565b005b846002600087815260200190815260200160002060000181905550836002600087815260200190815260200160002060010181905550826002600087815260200190815260200160002060020181905550816002600087815260200190815260200160002060030181905550806002600087815260200190815260200160002060040160006101000a81548173ffffffffffffffffffffffffffffffffffffffff021916908373ffffffffffffffffffffffffffffffffffffffff1602179055505050505050565b6000806000600460006001600087815260200190815260200160002060070160018060008981526020019081526020016000206007018054905003815481106105e657fe5b9060005260206000200154815260200190815260200160002060040154600460006001600088815260200190815260200160002060070160018060008a815260200190815260200160002060070180549050038154811061064357fe5b9060005260206000200154815260200190815260200160002060000154600460006001600089815260200190815260200160002060070160018060008b81526020019081526020016000206007018054905003815481106106a057fe5b90600052602060002001548152602001908152602001600020600301549250925092509193909250565b60608060608060608060608060608060008090505b600160008d815260200190815260200160002060070180549050811015610829576000600160008e8152602001908152602001600020600701828154811061072357fe5b90600052602060002001549050600460008281526020019081526020016000206000015487838151811061075357fe5b602002602001018181525050600460008281526020019081526020016000206002015486838151811061078257fe5b60200260200101818152505060046000828152602001908152602001600020600301548583815181106107b157fe5b60200260200101818152505060046000828152602001908152602001600020600401548483815181106107e057fe5b602002602001018181525050600460008281526020019081526020016000206005015483838151811061080f57fe5b6020026020010181815250505080806001019150506106df565b50848484848499509950995099509950505050505091939590929450565b565b600060016000858152602001908152602001600020600701600180600087815260200190815260200160002060070180549050038154811061088757fe5b9060005260206000200154905082600460008381526020019081526020016000206006018190555060016004600083815260200190815260200160002060080160006101000a81548160ff02191690831515021790555081600460008381526020019081526020016000206007018190555050505050565b846001600087815260200190815260200160002060000181905550836001600087815260200190815260200160002060010181905550826001600087815260200190815260200160002060020181905550816001600087815260200190815260200160002060030181905550806001600087815260200190815260200160002060040181905550336001600087815260200190815260200160002060090160006101000a81548173ffffffffffffffffffffffffffffffffffffffff021916908373ffffffffffffffffffffffffffffffffffffffff1602179055505050505050565b600080600080600060608060008090505b600160008a815260200190815260200160002060060180549050811015610a6557600160008a81526020019081526020016000206006018181548110610a3557fe5b9060005260206000200154828281518110610a4c57fe5b60200260200101818152505080806001019150506109f3565b506001600089815260200190815260200160002060000154600160008a815260200190815260200160002060010154600160008b815260200190815260200160002060020154600160008c815260200190815260200160002060030154600160008d815260200190815260200160002060040154859650965096509650965096505091939550919395565b600080600160008481526020019081526020016000206007016001806000868152602001908152602001600020600701805490500381548110610b2f57fe5b906000526020600020015490506004600082815260200190815260200160002060040154915050919050565b826003600085815260200190815260200160002060000181905550816003600085815260200190815260200160002060010181905550806003600085815260200190815260200160002060020160006101000a81548173ffffffffffffffffffffffffffffffffffffffff021916908373ffffffffffffffffffffffffffffffffffffffff16021790555050505056fea165627a7a72305820f246f7998d19680fb3c391d2a3d80b16892870d25fe8923ce7eeb798640b36dd0029",
  "source": "pragma solidity ^0.5.8;\n\ncontract med_chain {\n    address private oracle;\n\n    constructor() public {\n        oracle = msg.sender;\n    }\n\n    struct admin {\n        uint id;\n        address admin_address;\n    }\n\n    struct paitent {\n        uint aadhaar;\n        uint age;\n        bytes32 name;\n        bytes32 dob;\n        uint weight;\n        bytes32[] allergies;\n        bytes32[] disease_history;\n        uint[] prescription_ids;\n        uint[] doctor_ids;\n        address paitent_address;\n    }\n\n    struct doctor {\n        uint id;\n        uint license_no;\n        bytes32 name;\n        bytes32 specialisation;\n        address doctor_address;\n    }\n\n    struct pharmacy {\n        uint id;\n        uint license_no;\n        address phar_addr;\n    }\n\n    struct prescription {\n        uint doctor_id;\n        uint paitent_aadhaar;\n        bytes32 disease;\n        bytes32 symptoms;\n        bytes32 medicine;\n        bytes32 timestamp_prescribed;\n        uint pharmacy_id;\n        bytes32 timestamp_marked;\n        bool marked;\n    }\n\n    mapping (uint => paitent) paitent_aadhaar_mapping;\n    mapping (uint => doctor) doctor_id_mapping;\n    mapping (uint => pharmacy) pharmacy_id_mapping;\n    mapping (uint => prescription) prescription_id_mapping;\n    mapping (uint => admin) admin_id_mapping;\n\n    modifier only_doctor(uint d_id) {\n        if(doctor_id_mapping[d_id].doctor_address == msg.sender){\n            _;\n        }\n        else {\n            revert();\n        }\n    }\n\n    modifier only_pharmacy(uint f_id) {\n        if(pharmacy_id_mapping[f_id].phar_addr == msg.sender){\n            _;\n        }\n        else {\n            revert();\n        }\n    }\n\n    modifier only_admin(uint a_id) {\n        if (admin_id_mapping[a_id].admin_address == msg.sender) {\n            _;\n        }\n        else {\n            revert();\n        }\n    }\n\n    function add_paitent(uint aadhaar, uint age, bytes32 name, bytes32 dob, uint weight) public {\n        paitent_aadhaar_mapping[aadhaar].aadhaar = aadhaar;\n        paitent_aadhaar_mapping[aadhaar].age = age;\n        paitent_aadhaar_mapping[aadhaar].name = name;\n        paitent_aadhaar_mapping[aadhaar].dob = dob;\n        paitent_aadhaar_mapping[aadhaar].weight = weight;\n       // for(uint i = 0; i < allergies.length; i++) {\n        //    paitent_aadhaar_mapping[aadhaar].allergies[i]  = (allergies[i]);\n       // }\n        paitent_aadhaar_mapping[aadhaar].paitent_address = msg.sender;\n    }\n\n    function add_doctor(uint id, uint license_no, bytes32 name, bytes32 specialisation, address d_addr) public {\n        doctor_id_mapping[id].id = id;\n        doctor_id_mapping[id].license_no = license_no;\n        doctor_id_mapping[id].name = name;\n        doctor_id_mapping[id].specialisation = specialisation;\n        doctor_id_mapping[id].doctor_address = d_addr;\n    }\n\n    function add_pharmacy(uint id, uint license_no, address p_addr) public {\n        pharmacy_id_mapping[id].id = id;\n        pharmacy_id_mapping[id].license_no = license_no;\n        pharmacy_id_mapping[id].phar_addr = p_addr;\n    }\n\n    function lookup_paitent(uint aadhaar) view public returns (uint, uint, bytes32, bytes32, uint, bytes32[] memory)\n    {\n       // bytes32[] memory allergies;\n        bytes32[] memory disease;\n\n        //for (uint i = 0; i < paitent_aadhaar_mapping[aadhaar].allergies.length; i++) {\n       //     allergies[i] = paitent_aadhaar_mapping[aadhaar].allergies[i];\n        //}\n\n        for (uint i = 0; i < paitent_aadhaar_mapping[aadhaar].disease_history.length; i++) {\n            disease[i] = paitent_aadhaar_mapping[aadhaar].disease_history[i];\n        }\n         \n        return (\n            paitent_aadhaar_mapping[aadhaar].aadhaar,\n            paitent_aadhaar_mapping[aadhaar].age,\n            paitent_aadhaar_mapping[aadhaar].name,\n            paitent_aadhaar_mapping[aadhaar].dob,\n            paitent_aadhaar_mapping[aadhaar].weight,\n            //allergies,\n            disease\n        );\n    }\n    \n    function doctor_last_prescription(uint aadhaar) view public returns (bytes32, uint, bytes32){\n        return (\n            prescription_id_mapping[paitent_aadhaar_mapping[aadhaar].prescription_ids[paitent_aadhaar_mapping[aadhaar].prescription_ids.length - 1]].medicine,\n            prescription_id_mapping[paitent_aadhaar_mapping[aadhaar].prescription_ids[paitent_aadhaar_mapping[aadhaar].prescription_ids.length - 1]].doctor_id,\n            prescription_id_mapping[paitent_aadhaar_mapping[aadhaar].prescription_ids[paitent_aadhaar_mapping[aadhaar].prescription_ids.length - 1]].symptoms\n        );\n    }\n    \n\n    function medical_history(uint aadhaar) view public returns (uint[] memory, bytes32[] memory, bytes32[] memory, bytes32[] memory, bytes32[] memory) {\n        \n        uint[] memory doctor_id;\n        bytes32[] memory disease;\n        bytes32[] memory symptoms;\n        bytes32[] memory medicine;\n        bytes32[] memory timestamp_prescribed;\n        \n        for (uint i = 0; i < paitent_aadhaar_mapping[aadhaar].prescription_ids.length ; i++) {\n            \n            uint presc_id = paitent_aadhaar_mapping[aadhaar].prescription_ids[i];\n            \n            doctor_id[i] = prescription_id_mapping[presc_id].doctor_id;\n            disease[i] = prescription_id_mapping[presc_id].disease;\n            symptoms[i] = prescription_id_mapping[presc_id].symptoms;\n            medicine[i] = prescription_id_mapping[presc_id].medicine;\n            timestamp_prescribed[i] = prescription_id_mapping[presc_id].timestamp_prescribed;\n        \n        }\n\n        return (\n            doctor_id,\n            disease,\n            symptoms,\n            medicine,\n            timestamp_prescribed\n        );\n    }\n\n    function add_prescription() public {\n        \n    }\n\n    function last_prescription(uint aadhaar) view public returns (bytes32) {\n        uint last_presc_id = paitent_aadhaar_mapping[aadhaar].prescription_ids[paitent_aadhaar_mapping[aadhaar].prescription_ids.length -1];\n        return ( prescription_id_mapping[last_presc_id].medicine);\n                \n    }\n\n    function mark_prescription(uint aadhaar, uint pharmacy_id, bytes32 time) public {\n        uint last_presc_id = paitent_aadhaar_mapping[aadhaar].prescription_ids[paitent_aadhaar_mapping[aadhaar].prescription_ids.length -1];\n        prescription_id_mapping[last_presc_id].pharmacy_id = pharmacy_id;\n        prescription_id_mapping[last_presc_id].marked = true;\n        prescription_id_mapping[last_presc_id].timestamp_marked = time;\n    }\n\n}\n",
  "sourcePath": "/home/n3m0/Documents/blockchainWorking/contracts/med_chain.sol",
  "compiler": {
    "name": "solc",
    "version": "0.5.8+commit.23d335f2.Emscripten.clang"
  },
  "schemaVersion": "3.0.16",
  "updatedAt": "2019-10-31T01:19:42.308Z",
  "devdoc": {
    "methods": {}
  },
  "userdoc": {
    "methods": {}
  }
}