{
  "contractName": "med_chain",
  "abi": [
    {
      "inputs": [],
      "payable": false,
      "stateMutability": "nonpayable",
      "type": "constructor"
    },
    {
      "constant": false,
      "inputs": [
        {
          "name": "aadhaar",
          "type": "uint256"
        },
        {
          "name": "age",
          "type": "uint256"
        },
        {
          "name": "name",
          "type": "string"
        },
        {
          "name": "dob",
          "type": "string"
        },
        {
          "name": "weight",
          "type": "uint256"
        },
        {
          "name": "sex",
          "type": "string"
        },
        {
          "name": "allergies",
          "type": "string"
        }
      ],
      "name": "add_paitent",
      "outputs": [],
      "payable": false,
      "stateMutability": "nonpayable",
      "type": "function"
    },
    {
      "constant": false,
      "inputs": [
        {
          "name": "id",
          "type": "uint256"
        },
        {
          "name": "license_no",
          "type": "uint256"
        },
        {
          "name": "name",
          "type": "string"
        },
        {
          "name": "specialisation",
          "type": "string"
        },
        {
          "name": "d_addr",
          "type": "address"
        }
      ],
      "name": "add_doctor",
      "outputs": [],
      "payable": false,
      "stateMutability": "nonpayable",
      "type": "function"
    },
    {
      "constant": false,
      "inputs": [
        {
          "name": "id",
          "type": "uint256"
        },
        {
          "name": "license_no",
          "type": "uint256"
        },
        {
          "name": "p_addr",
          "type": "address"
        }
      ],
      "name": "add_pharmacy",
      "outputs": [],
      "payable": false,
      "stateMutability": "nonpayable",
      "type": "function"
    },
    {
      "constant": true,
      "inputs": [
        {
          "name": "aadhaar",
          "type": "uint256"
        }
      ],
      "name": "lookup_paitent",
      "outputs": [
        {
          "name": "",
          "type": "uint256"
        },
        {
          "name": "",
          "type": "uint256"
        },
        {
          "name": "",
          "type": "string"
        },
        {
          "name": "",
          "type": "string"
        },
        {
          "name": "",
          "type": "string"
        },
        {
          "name": "",
          "type": "uint256"
        },
        {
          "name": "",
          "type": "string"
        }
      ],
      "payable": false,
      "stateMutability": "view",
      "type": "function"
    },
    {
      "constant": true,
      "inputs": [
        {
          "name": "aadhaar",
          "type": "uint256"
        }
      ],
      "name": "doctor_last_prescription",
      "outputs": [
        {
          "name": "",
          "type": "string"
        },
        {
          "name": "",
          "type": "uint256"
        },
        {
          "name": "",
          "type": "string"
        }
      ],
      "payable": false,
      "stateMutability": "view",
      "type": "function"
    },
    {
      "constant": false,
      "inputs": [],
      "name": "medical_history",
      "outputs": [],
      "payable": false,
      "stateMutability": "nonpayable",
      "type": "function"
    },
    {
      "constant": false,
      "inputs": [
        {
          "name": "d_id",
          "type": "uint256"
        },
        {
          "name": "p_aadhar",
          "type": "uint256"
        },
        {
          "name": "disease",
          "type": "string"
        },
        {
          "name": "symptoms",
          "type": "string"
        },
        {
          "name": "medicine",
          "type": "string"
        },
        {
          "name": "time",
          "type": "string"
        }
      ],
      "name": "add_prescription",
      "outputs": [],
      "payable": false,
      "stateMutability": "nonpayable",
      "type": "function"
    },
    {
      "constant": true,
      "inputs": [
        {
          "name": "aadhaar",
          "type": "uint256"
        }
      ],
      "name": "last_prescription",
      "outputs": [
        {
          "name": "",
          "type": "string"
        }
      ],
      "payable": false,
      "stateMutability": "view",
      "type": "function"
    },
    {
      "constant": false,
      "inputs": [
        {
          "name": "aadhaar",
          "type": "uint256"
        },
        {
          "name": "pharmacy_id",
          "type": "uint256"
        },
        {
          "name": "time",
          "type": "string"
        }
      ],
      "name": "mark_prescription",
      "outputs": [],
      "payable": false,
      "stateMutability": "nonpayable",
      "type": "function"
    }
  ],
  "bytecode": "0x6080604052600160065534801561001557600080fd5b50336000806101000a81548173ffffffffffffffffffffffffffffffffffffffff021916908373ffffffffffffffffffffffffffffffffffffffff160217905550611846806100656000396000f3fe608060405234801561001057600080fd5b50600436106100935760003560e01c806366ffb4581161006657806366ffb458146106a5578063b7c9a49a146106af578063c392ba6c146108af578063e85acbf214610b43578063ea5b01a714610bea57610093565b80630699a9861461009857806327d36a8b1461016757806345a656e4146104055780634e99e5741461051f575b600080fd5b610165600480360360608110156100ae57600080fd5b810190808035906020019092919080359060200190929190803590602001906401000000008111156100df57600080fd5b8201836020820111156100f157600080fd5b8035906020019184600183028401116401000000008311171561011357600080fd5b91908080601f016020809104026020016040519081016040528093929190818152602001838380828437600081840152601f19601f820116905080830192505050505050509192919290505050610c42565b005b610403600480360360e081101561017d57600080fd5b810190808035906020019092919080359060200190929190803590602001906401000000008111156101ae57600080fd5b8201836020820111156101c057600080fd5b803590602001918460018302840111640100000000831117156101e257600080fd5b91908080601f016020809104026020016040519081016040528093929190818152602001838380828437600081840152601f19601f8201169050808301925050505050505091929192908035906020019064010000000081111561024557600080fd5b82018360208201111561025757600080fd5b8035906020019184600183028401116401000000008311171561027957600080fd5b91908080601f016020809104026020016040519081016040528093929190818152602001838380828437600081840152601f19601f82011690508083019250505050505050919291929080359060200190929190803590602001906401000000008111156102e657600080fd5b8201836020820111156102f857600080fd5b8035906020019184600183028401116401000000008311171561031a57600080fd5b91908080601f016020809104026020016040519081016040528093929190818152602001838380828437600081840152601f19601f8201169050808301925050505050505091929192908035906020019064010000000081111561037d57600080fd5b82018360208201111561038f57600080fd5b803590602001918460018302840111640100000000831117156103b157600080fd5b91908080601f016020809104026020016040519081016040528093929190818152602001838380828437600081840152601f19601f820116905080830192505050505050509192919290505050610d08565b005b6104316004803603602081101561041b57600080fd5b8101908080359060200190929190505050610e0e565b604051808060200184815260200180602001838103835286818151815260200191508051906020019080838360005b8381101561047b578082015181840152602081019050610460565b50505050905090810190601f1680156104a85780820380516001836020036101000a031916815260200191505b50838103825284818151815260200191508051906020019080838360005b838110156104e15780820151818401526020810190506104c6565b50505050905090810190601f16801561050e5780820380516001836020036101000a031916815260200191505b509550505050505060405180910390f35b6106a3600480360360a081101561053557600080fd5b8101908080359060200190929190803590602001909291908035906020019064010000000081111561056657600080fd5b82018360208201111561057857600080fd5b8035906020019184600183028401116401000000008311171561059a57600080fd5b91908080601f016020809104026020016040519081016040528093929190818152602001838380828437600081840152601f19601f820116905080830192505050505050509192919290803590602001906401000000008111156105fd57600080fd5b82018360208201111561060f57600080fd5b8035906020019184600183028401116401000000008311171561063157600080fd5b91908080601f016020809104026020016040519081016040528093929190818152602001838380828437600081840152601f19601f820116905080830192505050505050509192919290803573ffffffffffffffffffffffffffffffffffffffff16906020019092919050505061106e565b005b6106ad611156565b005b6106db600480360360208110156106c557600080fd5b8101908080359060200190929190505050611158565b604051808881526020018781526020018060200180602001806020018681526020018060200185810385528a818151815260200191508051906020019080838360005b8381101561073957808201518184015260208101905061071e565b50505050905090810190601f1680156107665780820380516001836020036101000a031916815260200191505b50858103845289818151815260200191508051906020019080838360005b8381101561079f578082015181840152602081019050610784565b50505050905090810190601f1680156107cc5780820380516001836020036101000a031916815260200191505b50858103835288818151815260200191508051906020019080838360005b838110156108055780820151818401526020810190506107ea565b50505050905090810190601f1680156108325780820380516001836020036101000a031916815260200191505b50858103825286818151815260200191508051906020019080838360005b8381101561086b578082015181840152602081019050610850565b50505050905090810190601f1680156108985780820380516001836020036101000a031916815260200191505b509b50505050505050505050505060405180910390f35b610b41600480360360c08110156108c557600080fd5b810190808035906020019092919080359060200190929190803590602001906401000000008111156108f657600080fd5b82018360208201111561090857600080fd5b8035906020019184600183028401116401000000008311171561092a57600080fd5b91908080601f016020809104026020016040519081016040528093929190818152602001838380828437600081840152601f19601f8201169050808301925050505050505091929192908035906020019064010000000081111561098d57600080fd5b82018360208201111561099f57600080fd5b803590602001918460018302840111640100000000831117156109c157600080fd5b91908080601f016020809104026020016040519081016040528093929190818152602001838380828437600081840152601f19601f82011690508083019250505050505050919291929080359060200190640100000000811115610a2457600080fd5b820183602082011115610a3657600080fd5b80359060200191846001830284011164010000000083111715610a5857600080fd5b91908080601f016020809104026020016040519081016040528093929190818152602001838380828437600081840152601f19601f82011690508083019250505050505050919291929080359060200190640100000000811115610abb57600080fd5b820183602082011115610acd57600080fd5b80359060200191846001830284011164010000000083111715610aef57600080fd5b91908080601f016020809104026020016040519081016040528093929190818152602001838380828437600081840152601f19601f82011690508083019250505050505050919291929050505061148a565b005b610b6f60048036036020811015610b5957600080fd5b81019080803590602001909291905050506115e1565b6040518080602001828103825283818151815260200191508051906020019080838360005b83811015610baf578082015181840152602081019050610b94565b50505050905090810190601f168015610bdc5780820380516001836020036101000a031916815260200191505b509250505060405180910390f35b610c4060048036036060811015610c0057600080fd5b810190808035906020019092919080359060200190929190803573ffffffffffffffffffffffffffffffffffffffff1690602001909291905050506116e5565b005b6000600160008581526020019081526020016000206007016001806000878152602001908152602001600020600701805490500381548110610c8057fe5b9060005260206000200154905082600460008381526020019081526020016000206007018190555060016004600083815260200190815260200160002060090160006101000a81548160ff02191690831515021790555081600460008381526020019081526020016000206008019080519060200190610d01929190611775565b5050505050565b86600160008981526020019081526020016000206000018190555085600160008981526020019081526020016000206001018190555084600160008981526020019081526020016000206002019080519060200190610d68929190611775565b5083600160008981526020019081526020016000206003019080519060200190610d93929190611775565b5082600160008981526020019081526020016000206004018190555081600160008981526020019081526020016000206009019080519060200190610dd9929190611775565b5080600160008981526020019081526020016000206005019080519060200190610e04929190611775565b5050505050505050565b60606000606060046000600160008781526020019081526020016000206007016001806000898152602001908152602001600020600701805490500381548110610e5457fe5b90600052602060002001548152602001908152602001600020600501600460006001600088815260200190815260200160002060070160018060008a8152602001908152602001600020600701805490500381548110610eb057fe5b9060005260206000200154815260200190815260200160002060010154600460006001600089815260200190815260200160002060070160018060008b8152602001908152602001600020600701805490500381548110610f0d57fe5b90600052602060002001548152602001908152602001600020600401828054600181600116156101000203166002900480601f016020809104026020016040519081016040528092919081815260200182805460018160011615610100020316600290048015610fbe5780601f10610f9357610100808354040283529160200191610fbe565b820191906000526020600020905b815481529060010190602001808311610fa157829003601f168201915b50505050509250808054600181600116156101000203166002900480601f01602080910402602001604051908101604052809291908181526020018280546001816001161561010002031660029004801561105a5780601f1061102f5761010080835404028352916020019161105a565b820191906000526020600020905b81548152906001019060200180831161103d57829003601f168201915b505050505090509250925092509193909250565b846002600087815260200190815260200160002060000181905550836002600087815260200190815260200160002060010181905550826002600087815260200190815260200160002060020190805190602001906110ce929190611775565b50816002600087815260200190815260200160002060030190805190602001906110f9929190611775565b50806002600087815260200190815260200160002060040160006101000a81548173ffffffffffffffffffffffffffffffffffffffff021916908373ffffffffffffffffffffffffffffffffffffffff1602179055505050505050565b565b6000806060806060600060606001600089815260200190815260200160002060000154600160008a815260200190815260200160002060010154600160008b8152602001908152602001600020600201600160008c8152602001908152602001600020600901600160008d8152602001908152602001600020600301600160008e815260200190815260200160002060040154600160008f8152602001908152602001600020600501848054600181600116156101000203166002900480601f0160208091040260200160405190810160405280929190818152602001828054600181600116156101000203166002900480156112965780601f1061126b57610100808354040283529160200191611296565b820191906000526020600020905b81548152906001019060200180831161127957829003601f168201915b50505050509450838054600181600116156101000203166002900480601f0160208091040260200160405190810160405280929190818152602001828054600181600116156101000203166002900480156113325780601f1061130757610100808354040283529160200191611332565b820191906000526020600020905b81548152906001019060200180831161131557829003601f168201915b50505050509350828054600181600116156101000203166002900480601f0160208091040260200160405190810160405280929190818152602001828054600181600116156101000203166002900480156113ce5780601f106113a3576101008083540402835291602001916113ce565b820191906000526020600020905b8154815290600101906020018083116113b157829003601f168201915b50505050509250808054600181600116156101000203166002900480601f01602080910402602001604051908101604052809291908181526020018280546001816001161561010002031660029004801561146a5780601f1061143f5761010080835404028352916020019161146a565b820191906000526020600020905b81548152906001019060200180831161144d57829003601f168201915b505050505090509650965096509650965096509650919395979092949650565b6001600086815260200190815260200160002060070160065490806001815401808255809150509060018203906000526020600020016000909192909190915055506006546004600060065481526020019081526020016000206000018190555085600460006006548152602001908152602001600020600101819055508460046000600654815260200190815260200160002060020181905550836004600060065481526020019081526020016000206003019080519060200190611551929190611775565b5082600460006006548152602001908152602001600020600401908051906020019061157e929190611775565b508160046000600654815260200190815260200160002060050190805190602001906115ab929190611775565b508060046000600654815260200190815260200160002060060190805190602001906115d8929190611775565b50505050505050565b6060600060016000848152602001908152602001600020600701600180600086815260200190815260200160002060070180549050038154811061162157fe5b90600052602060002001549050600460008281526020019081526020016000206005018054600181600116156101000203166002900480601f0160208091040260200160405190810160405280929190818152602001828054600181600116156101000203166002900480156116d85780601f106116ad576101008083540402835291602001916116d8565b820191906000526020600020905b8154815290600101906020018083116116bb57829003601f168201915b5050505050915050919050565b826003600085815260200190815260200160002060000181905550816003600085815260200190815260200160002060010181905550806003600085815260200190815260200160002060020160006101000a81548173ffffffffffffffffffffffffffffffffffffffff021916908373ffffffffffffffffffffffffffffffffffffffff160217905550505050565b828054600181600116156101000203166002900490600052602060002090601f016020900481019282601f106117b657805160ff19168380011785556117e4565b828001600101855582156117e4579182015b828111156117e35782518255916020019190600101906117c8565b5b5090506117f191906117f5565b5090565b61181791905b808211156118135760008160009055506001016117fb565b5090565b9056fea165627a7a72305820595e035aacab801c91f8d83e972c33f52a28d38f798aabbed347958f986a0c4f0029",
  "source": "pragma solidity ^0.5.8;\n\ncontract med_chain {\n    address private oracle;\n\n    constructor() public {\n        oracle = msg.sender;\n    }\n\n    struct admin {\n        uint id;\n        address admin_address;\n    }\n\n    struct paitent {\n        uint aadhaar;\n        uint age;\n        string name;\n        string dob;\n        uint weight;\n        string allergies;\n        string disease_history;\n        uint[] prescription_ids;\n        uint[] doctor_ids;\n        string sex;\n    }\n\n    struct doctor {\n        uint id;\n        uint license_no;\n        string name;\n        string specialisation;\n        address doctor_address;\n    }\n\n    struct pharmacy {\n        uint id;\n        uint license_no;\n        address phar_addr;\n    }\n\n    struct prescription {\n        uint id;\n        uint doctor_id;\n        uint paitent_aadhaar;\n        string disease;\n        string symptoms;\n        string medicine;\n        string timestamp_prescribed;\n        uint pharmacy_id;\n        string timestamp_marked;\n        bool marked;\n    }\n\n    mapping (uint => paitent) paitent_aadhaar_mapping;\n    mapping (uint => doctor) doctor_id_mapping;\n    mapping (uint => pharmacy) pharmacy_id_mapping;\n    mapping (uint => prescription) prescription_id_mapping;\n    mapping (uint => admin) admin_id_mapping;\n    uint current_pres_id = 1;\n\n    modifier only_doctor(uint d_id) {\n        if(doctor_id_mapping[d_id].doctor_address == msg.sender){\n            _;\n        }\n        else {\n            revert();\n        }\n    }\n\n    modifier only_pharmacy(uint f_id) {\n        if(pharmacy_id_mapping[f_id].phar_addr == msg.sender){\n            _;\n        }\n        else {\n            revert();\n        }\n    }\n\n    modifier only_admin(uint a_id) {\n        if (admin_id_mapping[a_id].admin_address == msg.sender) {\n            _;\n        }\n        else {\n            revert();\n        }\n    }\n\n    function add_paitent(uint aadhaar, uint age, string memory name, string memory dob, uint weight, string memory sex, string memory allergies) public {\n        paitent_aadhaar_mapping[aadhaar].aadhaar = aadhaar;\n        paitent_aadhaar_mapping[aadhaar].age = age;\n        paitent_aadhaar_mapping[aadhaar].name = name;\n        paitent_aadhaar_mapping[aadhaar].dob = dob;\n        paitent_aadhaar_mapping[aadhaar].weight = weight;\n        paitent_aadhaar_mapping[aadhaar].sex = sex;\n        paitent_aadhaar_mapping[aadhaar].allergies = allergies;\n    }\n\n    function add_doctor(uint id, uint license_no, string memory name, string memory specialisation, address d_addr) public {\n        doctor_id_mapping[id].id = id;\n        doctor_id_mapping[id].license_no = license_no;\n        doctor_id_mapping[id].name = name;\n        doctor_id_mapping[id].specialisation = specialisation;\n        doctor_id_mapping[id].doctor_address = d_addr;\n    }\n\n    function add_pharmacy(uint id, uint license_no, address p_addr) public {\n        pharmacy_id_mapping[id].id = id;\n        pharmacy_id_mapping[id].license_no = license_no;\n        pharmacy_id_mapping[id].phar_addr = p_addr;\n    }\n\n    function lookup_paitent(uint aadhaar) view public returns (uint, uint, string memory, string memory, string memory, uint, string memory) {         \n        return (\n            paitent_aadhaar_mapping[aadhaar].aadhaar,\n            paitent_aadhaar_mapping[aadhaar].age,\n            paitent_aadhaar_mapping[aadhaar].name,\n            paitent_aadhaar_mapping[aadhaar].sex,\n            paitent_aadhaar_mapping[aadhaar].dob,\n            paitent_aadhaar_mapping[aadhaar].weight,\n            paitent_aadhaar_mapping[aadhaar].allergies\n        );\n    }\n    \n    function doctor_last_prescription(uint aadhaar) view public returns (string memory, uint, string memory){\n        return (\n            prescription_id_mapping[paitent_aadhaar_mapping[aadhaar].prescription_ids[paitent_aadhaar_mapping[aadhaar].prescription_ids.length - 1]].medicine,\n            prescription_id_mapping[paitent_aadhaar_mapping[aadhaar].prescription_ids[paitent_aadhaar_mapping[aadhaar].prescription_ids.length - 1]].doctor_id,\n            prescription_id_mapping[paitent_aadhaar_mapping[aadhaar].prescription_ids[paitent_aadhaar_mapping[aadhaar].prescription_ids.length - 1]].symptoms\n        );\n    }\n    \n\n    function medical_history() public {\n        \n    }\n\n    function add_prescription(uint d_id, uint p_aadhar, string memory disease, string memory symptoms, string memory medicine, string memory time) public {\n        paitent_aadhaar_mapping[p_aadhar].prescription_ids.push(current_pres_id);\n        prescription_id_mapping[current_pres_id].id = current_pres_id;\n        prescription_id_mapping[current_pres_id].doctor_id = d_id;\n        prescription_id_mapping[current_pres_id].paitent_aadhaar = p_aadhar;\n        prescription_id_mapping[current_pres_id].disease = disease;\n        prescription_id_mapping[current_pres_id].symptoms = symptoms;\n        prescription_id_mapping[current_pres_id].medicine = medicine;\n        prescription_id_mapping[current_pres_id].timestamp_prescribed = time;\n    }\n\n    function last_prescription(uint aadhaar) view public returns (string memory) {\n        uint last_presc_id = paitent_aadhaar_mapping[aadhaar].prescription_ids[paitent_aadhaar_mapping[aadhaar].prescription_ids.length -1];\n        return ( prescription_id_mapping[last_presc_id].medicine);\n                \n    }\n\n    function mark_prescription(uint aadhaar, uint pharmacy_id, string memory time) public {\n        uint last_presc_id = paitent_aadhaar_mapping[aadhaar].prescription_ids[paitent_aadhaar_mapping[aadhaar].prescription_ids.length -1];\n        prescription_id_mapping[last_presc_id].pharmacy_id = pharmacy_id;\n        prescription_id_mapping[last_presc_id].marked = true;\n        prescription_id_mapping[last_presc_id].timestamp_marked = time;\n    }\n\n}\n",
  "sourcePath": "/home/n3m0/Documents/blockchainWorking/contracts/med_chain.sol",
  "compiler": {
    "name": "solc",
    "version": "0.5.8+commit.23d335f2.Emscripten.clang"
  },
  "schemaVersion": "3.0.16",
  "updatedAt": "2019-10-31T02:36:49.396Z",
  "devdoc": {
    "methods": {}
  },
  "userdoc": {
    "methods": {}
  }
}