{
  "contractName": "med_chain",
  "abi": [
    {
      "inputs": [],
      "payable": false,
      "stateMutability": "nonpayable",
      "type": "constructor"
    },
    {
      "constant": false,
      "inputs": [
        {
          "name": "aadhaar",
          "type": "uint256"
        },
        {
          "name": "age",
          "type": "uint256"
        },
        {
          "name": "name",
          "type": "string"
        },
        {
          "name": "dob",
          "type": "string"
        },
        {
          "name": "weight",
          "type": "uint256"
        },
        {
          "name": "sex",
          "type": "string"
        },
        {
          "name": "allergies",
          "type": "string"
        }
      ],
      "name": "add_paitent",
      "outputs": [],
      "payable": false,
      "stateMutability": "nonpayable",
      "type": "function"
    },
    {
      "constant": false,
      "inputs": [
        {
          "name": "id",
          "type": "uint256"
        },
        {
          "name": "license_no",
          "type": "uint256"
        },
        {
          "name": "name",
          "type": "string"
        },
        {
          "name": "specialisation",
          "type": "string"
        },
        {
          "name": "d_addr",
          "type": "address"
        }
      ],
      "name": "add_doctor",
      "outputs": [],
      "payable": false,
      "stateMutability": "nonpayable",
      "type": "function"
    },
    {
      "constant": false,
      "inputs": [
        {
          "name": "id",
          "type": "uint256"
        },
        {
          "name": "license_no",
          "type": "uint256"
        },
        {
          "name": "p_addr",
          "type": "address"
        }
      ],
      "name": "add_pharmacy",
      "outputs": [],
      "payable": false,
      "stateMutability": "nonpayable",
      "type": "function"
    },
    {
      "constant": true,
      "inputs": [
        {
          "name": "aadhaar",
          "type": "uint256"
        }
      ],
      "name": "lookup_paitent",
      "outputs": [
        {
          "name": "",
          "type": "uint256"
        },
        {
          "name": "",
          "type": "uint256"
        },
        {
          "name": "",
          "type": "string"
        },
        {
          "name": "",
          "type": "string"
        },
        {
          "name": "",
          "type": "string"
        },
        {
          "name": "",
          "type": "uint256"
        },
        {
          "name": "",
          "type": "string"
        }
      ],
      "payable": false,
      "stateMutability": "view",
      "type": "function"
    },
    {
      "constant": true,
      "inputs": [
        {
          "name": "aadhaar",
          "type": "uint256"
        }
      ],
      "name": "doctor_last_prescription",
      "outputs": [
        {
          "name": "",
          "type": "string"
        },
        {
          "name": "",
          "type": "uint256"
        },
        {
          "name": "",
          "type": "string"
        }
      ],
      "payable": false,
      "stateMutability": "view",
      "type": "function"
    },
    {
      "constant": true,
      "inputs": [
        {
          "name": "aadhaar",
          "type": "uint256"
        }
      ],
      "name": "medical_history",
      "outputs": [
        {
          "name": "",
          "type": "string"
        },
        {
          "name": "",
          "type": "string"
        },
        {
          "name": "",
          "type": "string"
        }
      ],
      "payable": false,
      "stateMutability": "view",
      "type": "function"
    },
    {
      "constant": false,
      "inputs": [
        {
          "name": "d_id",
          "type": "uint256"
        },
        {
          "name": "p_aadhar",
          "type": "uint256"
        },
        {
          "name": "disease",
          "type": "string"
        },
        {
          "name": "symptoms",
          "type": "string"
        },
        {
          "name": "medicine",
          "type": "string"
        },
        {
          "name": "time",
          "type": "string"
        }
      ],
      "name": "add_prescription",
      "outputs": [],
      "payable": false,
      "stateMutability": "nonpayable",
      "type": "function"
    },
    {
      "constant": true,
      "inputs": [
        {
          "name": "aadhaar",
          "type": "uint256"
        }
      ],
      "name": "last_prescription",
      "outputs": [
        {
          "name": "",
          "type": "string"
        }
      ],
      "payable": false,
      "stateMutability": "view",
      "type": "function"
    },
    {
      "constant": false,
      "inputs": [
        {
          "name": "aadhaar",
          "type": "uint256"
        },
        {
          "name": "pharmacy_id",
          "type": "uint256"
        },
        {
          "name": "time",
          "type": "string"
        }
      ],
      "name": "mark_prescription",
      "outputs": [],
      "payable": false,
      "stateMutability": "nonpayable",
      "type": "function"
    }
  ],
  "bytecode": "0x6080604052600160065534801561001557600080fd5b50336000806101000a81548173ffffffffffffffffffffffffffffffffffffffff021916908373ffffffffffffffffffffffffffffffffffffffff160217905550611f52806100656000396000f3fe608060405234801561001057600080fd5b50600436106100935760003560e01c80634e99e574116100665780634e99e5741461069e578063b7c9a49a14610824578063c392ba6c14610a24578063e85acbf214610cb8578063ea5b01a714610d5f57610093565b80630699a9861461009857806327d36a8b1461016757806345a656e41461040557806349181c221461051f575b600080fd5b610165600480360360608110156100ae57600080fd5b810190808035906020019092919080359060200190929190803590602001906401000000008111156100df57600080fd5b8201836020820111156100f157600080fd5b8035906020019184600183028401116401000000008311171561011357600080fd5b91908080601f016020809104026020016040519081016040528093929190818152602001838380828437600081840152601f19601f820116905080830192505050505050509192919290505050610db7565b005b610403600480360360e081101561017d57600080fd5b810190808035906020019092919080359060200190929190803590602001906401000000008111156101ae57600080fd5b8201836020820111156101c057600080fd5b803590602001918460018302840111640100000000831117156101e257600080fd5b91908080601f016020809104026020016040519081016040528093929190818152602001838380828437600081840152601f19601f8201169050808301925050505050505091929192908035906020019064010000000081111561024557600080fd5b82018360208201111561025757600080fd5b8035906020019184600183028401116401000000008311171561027957600080fd5b91908080601f016020809104026020016040519081016040528093929190818152602001838380828437600081840152601f19601f82011690508083019250505050505050919291929080359060200190929190803590602001906401000000008111156102e657600080fd5b8201836020820111156102f857600080fd5b8035906020019184600183028401116401000000008311171561031a57600080fd5b91908080601f016020809104026020016040519081016040528093929190818152602001838380828437600081840152601f19601f8201169050808301925050505050505091929192908035906020019064010000000081111561037d57600080fd5b82018360208201111561038f57600080fd5b803590602001918460018302840111640100000000831117156103b157600080fd5b91908080601f016020809104026020016040519081016040528093929190818152602001838380828437600081840152601f19601f820116905080830192505050505050509192919290505050610e7d565b005b6104316004803603602081101561041b57600080fd5b8101908080359060200190929190505050610f83565b604051808060200184815260200180602001838103835286818151815260200191508051906020019080838360005b8381101561047b578082015181840152602081019050610460565b50505050905090810190601f1680156104a85780820380516001836020036101000a031916815260200191505b50838103825284818151815260200191508051906020019080838360005b838110156104e15780820151818401526020810190506104c6565b50505050905090810190601f16801561050e5780820380516001836020036101000a031916815260200191505b509550505050505060405180910390f35b61054b6004803603602081101561053557600080fd5b81019080803590602001909291905050506111e3565b60405180806020018060200180602001848103845287818151815260200191508051906020019080838360005b83811015610593578082015181840152602081019050610578565b50505050905090810190601f1680156105c05780820380516001836020036101000a031916815260200191505b50848103835286818151815260200191508051906020019080838360005b838110156105f95780820151818401526020810190506105de565b50505050905090810190601f1680156106265780820380516001836020036101000a031916815260200191505b50848103825285818151815260200191508051906020019080838360005b8381101561065f578082015181840152602081019050610644565b50505050905090810190601f16801561068c5780820380516001836020036101000a031916815260200191505b50965050505050505060405180910390f35b610822600480360360a08110156106b457600080fd5b810190808035906020019092919080359060200190929190803590602001906401000000008111156106e557600080fd5b8201836020820111156106f757600080fd5b8035906020019184600183028401116401000000008311171561071957600080fd5b91908080601f016020809104026020016040519081016040528093929190818152602001838380828437600081840152601f19601f8201169050808301925050505050505091929192908035906020019064010000000081111561077c57600080fd5b82018360208201111561078e57600080fd5b803590602001918460018302840111640100000000831117156107b057600080fd5b91908080601f016020809104026020016040519081016040528093929190818152602001838380828437600081840152601f19601f820116905080830192505050505050509192919290803573ffffffffffffffffffffffffffffffffffffffff16906020019092919050505061158c565b005b6108506004803603602081101561083a57600080fd5b8101908080359060200190929190505050611674565b604051808881526020018781526020018060200180602001806020018681526020018060200185810385528a818151815260200191508051906020019080838360005b838110156108ae578082015181840152602081019050610893565b50505050905090810190601f1680156108db5780820380516001836020036101000a031916815260200191505b50858103845289818151815260200191508051906020019080838360005b838110156109145780820151818401526020810190506108f9565b50505050905090810190601f1680156109415780820380516001836020036101000a031916815260200191505b50858103835288818151815260200191508051906020019080838360005b8381101561097a57808201518184015260208101905061095f565b50505050905090810190601f1680156109a75780820380516001836020036101000a031916815260200191505b50858103825286818151815260200191508051906020019080838360005b838110156109e05780820151818401526020810190506109c5565b50505050905090810190601f168015610a0d5780820380516001836020036101000a031916815260200191505b509b50505050505050505050505060405180910390f35b610cb6600480360360c0811015610a3a57600080fd5b81019080803590602001909291908035906020019092919080359060200190640100000000811115610a6b57600080fd5b820183602082011115610a7d57600080fd5b80359060200191846001830284011164010000000083111715610a9f57600080fd5b91908080601f016020809104026020016040519081016040528093929190818152602001838380828437600081840152601f19601f82011690508083019250505050505050919291929080359060200190640100000000811115610b0257600080fd5b820183602082011115610b1457600080fd5b80359060200191846001830284011164010000000083111715610b3657600080fd5b91908080601f016020809104026020016040519081016040528093929190818152602001838380828437600081840152601f19601f82011690508083019250505050505050919291929080359060200190640100000000811115610b9957600080fd5b820183602082011115610bab57600080fd5b80359060200191846001830284011164010000000083111715610bcd57600080fd5b91908080601f016020809104026020016040519081016040528093929190818152602001838380828437600081840152601f19601f82011690508083019250505050505050919291929080359060200190640100000000811115610c3057600080fd5b820183602082011115610c4257600080fd5b80359060200191846001830284011164010000000083111715610c6457600080fd5b91908080601f016020809104026020016040519081016040528093929190818152602001838380828437600081840152601f19601f8201169050808301925050505050505091929192905050506119a6565b005b610ce460048036036020811015610cce57600080fd5b8101908080359060200190929190505050611afd565b6040518080602001828103825283818151815260200191508051906020019080838360005b83811015610d24578082015181840152602081019050610d09565b50505050905090810190601f168015610d515780820380516001836020036101000a031916815260200191505b509250505060405180910390f35b610db560048036036060811015610d7557600080fd5b810190808035906020019092919080359060200190929190803573ffffffffffffffffffffffffffffffffffffffff169060200190929190505050611c01565b005b6000600160008581526020019081526020016000206007016001806000878152602001908152602001600020600701805490500381548110610df557fe5b9060005260206000200154905082600460008381526020019081526020016000206007018190555060016004600083815260200190815260200160002060090160006101000a81548160ff02191690831515021790555081600460008381526020019081526020016000206008019080519060200190610e76929190611e81565b5050505050565b86600160008981526020019081526020016000206000018190555085600160008981526020019081526020016000206001018190555084600160008981526020019081526020016000206002019080519060200190610edd929190611e81565b5083600160008981526020019081526020016000206003019080519060200190610f08929190611e81565b5082600160008981526020019081526020016000206004018190555081600160008981526020019081526020016000206009019080519060200190610f4e929190611e81565b5080600160008981526020019081526020016000206005019080519060200190610f79929190611e81565b5050505050505050565b60606000606060046000600160008781526020019081526020016000206007016001806000898152602001908152602001600020600701805490500381548110610fc957fe5b90600052602060002001548152602001908152602001600020600501600460006001600088815260200190815260200160002060070160018060008a815260200190815260200160002060070180549050038154811061102557fe5b9060005260206000200154815260200190815260200160002060010154600460006001600089815260200190815260200160002060070160018060008b815260200190815260200160002060070180549050038154811061108257fe5b90600052602060002001548152602001908152602001600020600401828054600181600116156101000203166002900480601f0160208091040260200160405190810160405280929190818152602001828054600181600116156101000203166002900480156111335780601f1061110857610100808354040283529160200191611133565b820191906000526020600020905b81548152906001019060200180831161111657829003601f168201915b50505050509250808054600181600116156101000203166002900480601f0160208091040260200160405190810160405280929190818152602001828054600181600116156101000203166002900480156111cf5780601f106111a4576101008083540402835291602001916111cf565b820191906000526020600020905b8154815290600101906020018083116111b257829003601f168201915b505050505090509250925092509193909250565b6060806060806040518060400160405280600181526020017f2d00000000000000000000000000000000000000000000000000000000000000815250905060606040518060400160405280600181526020017f2d00000000000000000000000000000000000000000000000000000000000000815250905060606040518060400160405280600181526020017f2d00000000000000000000000000000000000000000000000000000000000000815250905060008090505b60016000898152602001908152602001600020600701805490508110156115785761139f8460046000600160008d815260200190815260200160002060070185815481106112e557fe5b906000526020600020015481526020019081526020016000206003018054600181600116156101000203166002900480601f0160208091040260200160405190810160405280929190818152602001828054600181600116156101000203166002900480156113955780601f1061136a57610100808354040283529160200191611395565b820191906000526020600020905b81548152906001019060200180831161137857829003601f168201915b5050505050611c91565b93506114848360046000600160008d815260200190815260200160002060070185815481106113ca57fe5b906000526020600020015481526020019081526020016000206005018054600181600116156101000203166002900480601f01602080910402602001604051908101604052809291908181526020018280546001816001161561010002031660029004801561147a5780601f1061144f5761010080835404028352916020019161147a565b820191906000526020600020905b81548152906001019060200180831161145d57829003601f168201915b5050505050611c91565b92506115698260046000600160008d815260200190815260200160002060070185815481106114af57fe5b906000526020600020015481526020019081526020016000206006018054600181600116156101000203166002900480601f01602080910402602001604051908101604052809291908181526020018280546001816001161561010002031660029004801561155f5780601f106115345761010080835404028352916020019161155f565b820191906000526020600020905b81548152906001019060200180831161154257829003601f168201915b5050505050611c91565b9150808060010191505061129b565b508282829550955095505050509193909250565b846002600087815260200190815260200160002060000181905550836002600087815260200190815260200160002060010181905550826002600087815260200190815260200160002060020190805190602001906115ec929190611e81565b5081600260008781526020019081526020016000206003019080519060200190611617929190611e81565b50806002600087815260200190815260200160002060040160006101000a81548173ffffffffffffffffffffffffffffffffffffffff021916908373ffffffffffffffffffffffffffffffffffffffff1602179055505050505050565b6000806060806060600060606001600089815260200190815260200160002060000154600160008a815260200190815260200160002060010154600160008b8152602001908152602001600020600201600160008c8152602001908152602001600020600901600160008d8152602001908152602001600020600301600160008e815260200190815260200160002060040154600160008f8152602001908152602001600020600501848054600181600116156101000203166002900480601f0160208091040260200160405190810160405280929190818152602001828054600181600116156101000203166002900480156117b25780601f10611787576101008083540402835291602001916117b2565b820191906000526020600020905b81548152906001019060200180831161179557829003601f168201915b50505050509450838054600181600116156101000203166002900480601f01602080910402602001604051908101604052809291908181526020018280546001816001161561010002031660029004801561184e5780601f106118235761010080835404028352916020019161184e565b820191906000526020600020905b81548152906001019060200180831161183157829003601f168201915b50505050509350828054600181600116156101000203166002900480601f0160208091040260200160405190810160405280929190818152602001828054600181600116156101000203166002900480156118ea5780601f106118bf576101008083540402835291602001916118ea565b820191906000526020600020905b8154815290600101906020018083116118cd57829003601f168201915b50505050509250808054600181600116156101000203166002900480601f0160208091040260200160405190810160405280929190818152602001828054600181600116156101000203166002900480156119865780601f1061195b57610100808354040283529160200191611986565b820191906000526020600020905b81548152906001019060200180831161196957829003601f168201915b505050505090509650965096509650965096509650919395979092949650565b6001600086815260200190815260200160002060070160065490806001815401808255809150509060018203906000526020600020016000909192909190915055506006546004600060065481526020019081526020016000206000018190555085600460006006548152602001908152602001600020600101819055508460046000600654815260200190815260200160002060020181905550836004600060065481526020019081526020016000206003019080519060200190611a6d929190611e81565b50826004600060065481526020019081526020016000206004019080519060200190611a9a929190611e81565b50816004600060065481526020019081526020016000206005019080519060200190611ac7929190611e81565b50806004600060065481526020019081526020016000206006019080519060200190611af4929190611e81565b50505050505050565b60606000600160008481526020019081526020016000206007016001806000868152602001908152602001600020600701805490500381548110611b3d57fe5b90600052602060002001549050600460008281526020019081526020016000206005018054600181600116156101000203166002900480601f016020809104026020016040519081016040528092919081815260200182805460018160011615610100020316600290048015611bf45780601f10611bc957610100808354040283529160200191611bf4565b820191906000526020600020905b815481529060010190602001808311611bd757829003601f168201915b5050505050915050919050565b826003600085815260200190815260200160002060000181905550816003600085815260200190815260200160002060010181905550806003600085815260200190815260200160002060020160006101000a81548173ffffffffffffffffffffffffffffffffffffffff021916908373ffffffffffffffffffffffffffffffffffffffff160217905550505050565b6060806040518060400160405280600181526020017f2d000000000000000000000000000000000000000000000000000000000000008152509050606083518251865101016040519080825280601f01601f191660200182016040528015611d085781602001600182028038833980820191505090505b5090506060819050600080905060008090505b8751811015611d8957878181518110611d3057fe5b602001015160f81c60f81b838380600101945081518110611d4d57fe5b60200101907effffffffffffffffffffffffffffffffffffffffffffffffffffffffffffff1916908160001a9053508080600101915050611d1b565b5060008090505b8451811015611dfe57848181518110611da557fe5b602001015160f81c60f81b838380600101945081518110611dc257fe5b60200101907effffffffffffffffffffffffffffffffffffffffffffffffffffffffffffff1916908160001a9053508080600101915050611d90565b5060008090505b8651811015611e7357868181518110611e1a57fe5b602001015160f81c60f81b838380600101945081518110611e3757fe5b60200101907effffffffffffffffffffffffffffffffffffffffffffffffffffffffffffff1916908160001a9053508080600101915050611e05565b508194505050505092915050565b828054600181600116156101000203166002900490600052602060002090601f016020900481019282601f10611ec257805160ff1916838001178555611ef0565b82800160010185558215611ef0579182015b82811115611eef578251825591602001919060010190611ed4565b5b509050611efd9190611f01565b5090565b611f2391905b80821115611f1f576000816000905550600101611f07565b5090565b9056fea165627a7a723058205accc11f92a1856508a27ddce31621fda21cca33bae1739500ce8171d86e6f170029",
  "source": "pragma solidity ^0.5.8;\n\ncontract med_chain {\n    address private oracle;\n\n    constructor() public {\n        oracle = msg.sender;\n    }\n\n    struct admin {\n        uint id;\n        address admin_address;\n    }\n\n    struct paitent {\n        uint aadhaar;\n        uint age;\n        string name;\n        string dob;\n        uint weight;\n        string allergies;\n        string disease_history;\n        uint[] prescription_ids;\n        uint[] doctor_ids;\n        string sex;\n    }\n\n    struct doctor {\n        uint id;\n        uint license_no;\n        string name;\n        string specialisation;\n        address doctor_address;\n    }\n\n    struct pharmacy {\n        uint id;\n        uint license_no;\n        address phar_addr;\n    }\n\n    struct prescription {\n        uint id;\n        uint doctor_id;\n        uint paitent_aadhaar;\n        string disease;\n        string symptoms;\n        string medicine;\n        string timestamp_prescribed;\n        uint pharmacy_id;\n        string timestamp_marked;\n        bool marked;\n    }\n\n    mapping (uint => paitent) paitent_aadhaar_mapping;\n    mapping (uint => doctor) doctor_id_mapping;\n    mapping (uint => pharmacy) pharmacy_id_mapping;\n    mapping (uint => prescription) prescription_id_mapping;\n    mapping (uint => admin) admin_id_mapping;\n    uint current_pres_id = 1;\n\n    modifier only_doctor(uint d_id) {\n        if(doctor_id_mapping[d_id].doctor_address == msg.sender){\n            _;\n        }\n        else {\n            revert();\n        }\n    }\n\n    modifier only_pharmacy(uint f_id) {\n        if(pharmacy_id_mapping[f_id].phar_addr == msg.sender){\n            _;\n        }\n        else {\n            revert();\n        }\n    }\n\n    modifier only_admin(uint a_id) {\n        if (admin_id_mapping[a_id].admin_address == msg.sender) {\n            _;\n        }\n        else {\n            revert();\n        }\n    }\n\n    function strConcat(string memory _a,  string memory _c) internal pure returns (string memory _concatenatedString) {\n        string memory _b = \"-\";\n        string memory abcde = new string(bytes(_a).length + bytes(_b).length + bytes(_c).length );\n        bytes memory babcde = bytes(abcde);\n        uint k = 0;\n        for (uint i = 0; i < bytes(_a).length; i++) {\n            babcde[k++] = bytes(_a)[i];\n        }\n        for (uint i = 0; i < bytes(_b).length; i++) {\n            babcde[k++] = bytes(_b)[i];\n        }\n        for (uint i = 0; i < bytes(_c).length; i++) {\n            babcde[k++] = bytes(_c)[i];\n        }\n        return string(babcde);\n    }\n\n    function add_paitent(uint aadhaar, uint age, string memory name, string memory dob, uint weight, string memory sex, string memory allergies) public {\n        paitent_aadhaar_mapping[aadhaar].aadhaar = aadhaar;\n        paitent_aadhaar_mapping[aadhaar].age = age;\n        paitent_aadhaar_mapping[aadhaar].name = name;\n        paitent_aadhaar_mapping[aadhaar].dob = dob;\n        paitent_aadhaar_mapping[aadhaar].weight = weight;\n        paitent_aadhaar_mapping[aadhaar].sex = sex;\n        paitent_aadhaar_mapping[aadhaar].allergies = allergies;\n    }\n\n    function add_doctor(uint id, uint license_no, string memory name, string memory specialisation, address d_addr) public {\n        doctor_id_mapping[id].id = id;\n        doctor_id_mapping[id].license_no = license_no;\n        doctor_id_mapping[id].name = name;\n        doctor_id_mapping[id].specialisation = specialisation;\n        doctor_id_mapping[id].doctor_address = d_addr;\n    }\n\n    function add_pharmacy(uint id, uint license_no, address p_addr) public {\n        pharmacy_id_mapping[id].id = id;\n        pharmacy_id_mapping[id].license_no = license_no;\n        pharmacy_id_mapping[id].phar_addr = p_addr;\n    }\n\n    function lookup_paitent(uint aadhaar) view public returns (uint, uint, string memory, string memory, string memory, uint, string memory) {         \n        return (\n            paitent_aadhaar_mapping[aadhaar].aadhaar,\n            paitent_aadhaar_mapping[aadhaar].age,\n            paitent_aadhaar_mapping[aadhaar].name,\n            paitent_aadhaar_mapping[aadhaar].sex,\n            paitent_aadhaar_mapping[aadhaar].dob,\n            paitent_aadhaar_mapping[aadhaar].weight,\n            paitent_aadhaar_mapping[aadhaar].allergies\n        );\n    }\n    \n    function doctor_last_prescription(uint aadhaar) view public returns (string memory, uint, string memory){\n        return (\n            prescription_id_mapping[paitent_aadhaar_mapping[aadhaar].prescription_ids[paitent_aadhaar_mapping[aadhaar].prescription_ids.length - 1]].medicine,\n            prescription_id_mapping[paitent_aadhaar_mapping[aadhaar].prescription_ids[paitent_aadhaar_mapping[aadhaar].prescription_ids.length - 1]].doctor_id,\n            prescription_id_mapping[paitent_aadhaar_mapping[aadhaar].prescription_ids[paitent_aadhaar_mapping[aadhaar].prescription_ids.length - 1]].symptoms\n        );\n    }\n    \n    function uint2str(uint _i) internal pure returns (string memory _uintAsString) {\n        if (_i == 0) {\n            return \"0\";\n        }\n        uint j = _i;\n        uint len;\n        while (j != 0) {\n            len++;\n            j /= 10;\n        }\n        bytes memory bstr = new bytes(len);\n        uint k = len - 1;\n        while (_i != 0) {\n            bstr[k--] = byte(uint8(48 + _i % 10));\n            _i /= 10;\n        }\n        return string(bstr);\n    }\n\n    function medical_history(uint aadhaar) view public returns ( string memory, string memory, string memory) {\n        string memory dis = \"-\";\n        string memory med = \"-\";\n        string memory time = \"-\";\n        for(uint i = 0; i < paitent_aadhaar_mapping[aadhaar].prescription_ids.length; i++ ){\n            dis = strConcat(dis, prescription_id_mapping[paitent_aadhaar_mapping[aadhaar].prescription_ids[i]].disease);\n            med = strConcat(med, prescription_id_mapping[paitent_aadhaar_mapping[aadhaar].prescription_ids[i]].medicine);\n            time = strConcat(time, prescription_id_mapping[paitent_aadhaar_mapping[aadhaar].prescription_ids[i]].timestamp_prescribed);\n        }\n\n        return(dis, med, time);\n    }\n\n    function add_prescription(uint d_id, uint p_aadhar, string memory disease, string memory symptoms, string memory medicine, string memory time) public {\n        paitent_aadhaar_mapping[p_aadhar].prescription_ids.push(current_pres_id);\n        prescription_id_mapping[current_pres_id].id = current_pres_id;\n        prescription_id_mapping[current_pres_id].doctor_id = d_id;\n        prescription_id_mapping[current_pres_id].paitent_aadhaar = p_aadhar;\n        prescription_id_mapping[current_pres_id].disease = disease;\n        prescription_id_mapping[current_pres_id].symptoms = symptoms;\n        prescription_id_mapping[current_pres_id].medicine = medicine;\n        prescription_id_mapping[current_pres_id].timestamp_prescribed = time;\n    }\n\n    function last_prescription(uint aadhaar) view public returns (string memory) {\n        uint last_presc_id = paitent_aadhaar_mapping[aadhaar].prescription_ids[paitent_aadhaar_mapping[aadhaar].prescription_ids.length -1];\n        return ( prescription_id_mapping[last_presc_id].medicine);\n                \n    }\n\n    function mark_prescription(uint aadhaar, uint pharmacy_id, string memory time) public {\n        uint last_presc_id = paitent_aadhaar_mapping[aadhaar].prescription_ids[paitent_aadhaar_mapping[aadhaar].prescription_ids.length -1];\n        prescription_id_mapping[last_presc_id].pharmacy_id = pharmacy_id;\n        prescription_id_mapping[last_presc_id].marked = true;\n        prescription_id_mapping[last_presc_id].timestamp_marked = time;\n    }\n\n}",
  "sourcePath": "/home/n3m0/Documents/blockchainWorking/contracts/med_chain.sol",
  "compiler": {
    "name": "solc",
    "version": "0.5.8+commit.23d335f2.Emscripten.clang"
  },
  "schemaVersion": "3.0.16",
  "updatedAt": "2019-10-31T04:10:25.557Z",
  "devdoc": {
    "methods": {}
  },
  "userdoc": {
    "methods": {}
  }
}